:0A0000000C94AB000C9400000C946B
:10000A0000000C9400000C9400000C9400000C9466
:10001A0000000C9400000C9400000C9400000C9456
:10002A0000000C9400000C9400000C9400000C9446
:10003A0066020C9400000C9400000C9400000C94CE
:10004A0000000C9400000C9400000C9400000C9426
:10005A0000000C9400000C9400000C9400000C9416
:10006A0000000C9400000C9400000C9400000C9406
:10007A0000000C9400000C9400000C9400000C94F6
:10008A0000000C9400000C9400000C9400000C94E6
:10009A0000000C9400000C9400000C9400000C94D6
:1000AA0000000C9400000C9400000C9400000C94C6
:1000BA0000000C9400000C9400000C9400000C94B6
:1000CA0000000C9400000C9400000C9400000C94A6
:1000DA0000000C9400000C9400000C9400000C9496
:1000EA0000000C9400000C9400000C9400000C9486
:1000FA0000000C9400000C9400000C9400000C9476
:10010A0000000C9400000C9400000C9400000C9465
:10011A0000000C9400000C9400000C9400000C9455
:10012A0000000C9400000C9400000C9400000C9445
:10013A0000000C9400000C9400001027E8036400EF
:10014A000A0001000010000110000100F894EE27D7
:10015A00F091CC01F860F093CC01F8EDF4BFE09394
:10016A00A20080E090E2A0E0B0E2ED930197E9F707
:10017A008BBFE0E0E0B9E1B9E2B9E3B9EFEFEDBF77
:10018A00EFE3EEBFC0E0D8E20C94CB00F894E09124
:10019A00A200E873E4601E2FE8EDE4BF1093A2000A
:1001AA00E0E0E093A1000ED039D01CD12BD1789495
:1001BA00A1D1F27011F0E0EF01C0E0E0E093240673
:1001CA00F7CFFFCF1A930A930FB7F894E091500034
:1001DA00E160E0935000E0915100E170E1F3E0E06A
:1001EA00E0936800E0914100E0781E2FE8EDE4BF5B
:1001FA0010934100E0914000E87F1E2FE8EDE4BF34
:10020A0010934000E0915000E17EE0935000E091AD
:10021A00B400E07FE093B4000FBF50C1E0E0E09388
:10022A000406E0930006E0931006E0931106E093BB
:10023A001206E0931306E0931406E0931506E09382
:10024A001606E0931706E0910906E07FE093090697
:10025A00E0E0E0930A06E0930B06E0EFE093240661
:10026A00E0932006E0E0E0933006E0933106E09365
:10027A003206E0933306E0933406E0933506E093C2
:10028A003606E0933706E0912906E07FE0932906D7
:10029A00E0E0E0932A06E0932B06E0934406E0931D
:1002AA004006E0935006E0935106E0935206E0932D
:1002BA005306E0935406E0935506E0935606E093FE
:1002CA005706E0934E06E0914906E07FE09349061F
:1002DA00E0E0E0934A06E0934B06E0936406E0937D
:1002EA006006E0937006E0937106E0937206E0916F
:1002FA006906E07FE0936906E0E0E0936A06E0932E
:10030A006B06E0938406E0E2E0938006E0E0E09387
:10031A009006E0939106E0939206E0939306E093A9
:10032A009406E0939506E0939606E0939706E09389
:10033A008E06E0918906E07FE0938906E0E0E0938B
:10034A008A06E0938B06E093C406E093C006E09326
:10035A00D006E093D106E093D206E093D306E09369
:10036A00D406E093D506E093D606E093D706E0914B
:10037A00C906E07FE093C906E0E0E093CA06E0938D
:10038A00CB06E0936407E0936007E0937007E0937D
:10039A007107E0937207E0937307E0937407E093A1
:1003AA007507E0937607E0937707E0916907E07FA6
:1003BA00E0936907E0E0E0936A07E0936B07E09354
:1003CA00E407E093E007E093F007E093F107E09198
:1003DA00E907E07FE093E907E0E0E093EA07E093CA
:1003EA00EB070895E0E1E093B200E2E3E093B300A3
:1003FA0008951A930A938D01E0E0EC931996ECE0C4
:10040A00EC935CC01A930A931FB7F894A0E0B8E083
:10041A00F0DFE1E0E0930008E0E0E0930108E09318
:10042A000308E0930408E3E0E0930608E0E0E093C1
:10043A000708E0919008EE7FE0939008E091990018
:10044A00EE7F0E2FE8EDE4BF00939900E0E0E09321
:10045A008008E0918308E87EE0938308E0E0E09377
:10046A008208A4E8B8E00A2EAC91E0918408E4700E
:10047A00EA2BA02DEC93E0910C08E0930C08E0E045
:10048A00F0E0E0932008F0932108EFECF7E0E09326
:10049A002608F0932708E0E0F0E0E0932808F093BC
:1004AA002908E0932A08F0932B08E0932C08F0938C
:1004BA002D08E0932E08F0932F081FBF0991199178
:1004CA0008956A937A93AA93BA93EA93FA93EFB741
:1004DA00EA93A0E0B8E222D0EF5FFF4F6F4F7F4F61
:1004EA0022D0E991EFBFF991E991B991A991799156
:1004FA006991189524971A931FB7F894E0910028E8
:10050A00F09101286091022870910328E983FA8307
:10051A006B837C831FBF188125960895ED91FD9109
:10052A006D917D9108957E936E93FE93EE93089557
:00000001FF
